:1000000040CCFF1F8D4300003942000089430000AF
:1000100089430000894300008943000089430000B0
:100020000000000000000000000000008943000004
:10003000894300000000000089430000894300005C
:10004000AD2B0000292B0000392C0000752C00007E
:10005000553B0000E53A00005D220000F12200005F
:10006000B92300002D240000F93200007D2F00008C
:100070000000000000000000000000000000000080
:100080000000000000000000000000000000000070
:100090000000000000000000000000000000000060
:1000A0000000000000000000000000000000000050
:10040000FFFFFFFFFFFDFFFFFCFFFFFFFFFFFFFF01
:10041000FCFFFFFFFFFFFFFFFCFFFF00FFFFFF00F0
:10042000FCFF0F20FFFF0F20FCFF7F40FFFF7F40FE
:10043000FCFF0D40FFFF0D40FFFFFFFFFFFFFFFF31
:10044000FFFFFFFFFFFFFFFFFFFFFFFFFFFFFFFFBC
:10045000FFFFFFFFFFFFFFFFFFFFFFFFFFFFFFFFAC
:10046000FFFFFFFFFFFFFFFFFFFFFFFFFFFFFFFF9C
:10047000FFFFFFFFFFFFFFFFFFFFFFFFFFFFFFFF8C
:10048000FFFFFFFFFFFFFFFFFFFFFFFFFFFFFFFF7C
:10049000FFFFFFFFFFFFFFFFFFFFFFFFFFFFFFFF6C
:1004A000FFFFFFFFFFFFFFFFFFFFFFFFFFFFFFFF5C
:1004B000FFFFFFFFFFFFFFFFFFFFFFFFFFFFFFFF4C
:1004C000FFFFFFFFFFFFFFFFFFFFFFFFFFFFFFFF3C
:1004D000FFFFFFFFFFFFFFFFFFFFFFFFFFFFFFFF2C
:1004E000FFFFFFFFFFFFFFFFFFFFFFFFFFFFFFFF1C
:1004F000FFFFFFFFFFFFFFFFFFFFFFFFFFFFFFFF0C
:1005000010B5054C237833B9044B13B10448AFF34D
:1005100000800123237010BD4802FE1F0000000070
:1005200040AB050008B5034B1BB103490348AFF3CB
:10053000008008BD000000004C02FE1F40AB05001B
:1005400010B50D4C82B0206805F040FF012811DD88
:1005500001A92068022205F0F9FE9DF805309DF8FA
:100560000410064801EB03210831091101F500616F
:1005700003F0DCFC02B010BD0C0AFE1F5CA2FF1FE2
:1005800038B51A4B1A682AB3194D1A4C2946204619
:1005900003F07EFC0028F9D10121642003F01EFE47
:1005A000144C204603F00CFD0028FAD11248134DDC
:1005B000134C01220F2102F013FC2946204602F0C1
:1005C0004BFD0028F9D10E4C204602F013FD002807
:1005D000FAD138BD0B484FF4F0624FF4F56105F0E5
:1005E00001FE0028D0D000BECEE700BF0C0AFE1FDF
:1005F000C44D05005CA2FF1F3CA1FF1F784E050003
:1006000064A1FF1F6402FE1F10B50C480C4C02F0E1
:10061000EBFC0A4802F04EFE0A4803F08FFC094842
:1006200003F0A8FC084800220F2102F0D9FB206843
:1006300018B105F029FE0023236010BD64A1FF1F3F
:100640000C0AFE1F5CA2FF1F3CA1FF1F2DE9F04713
:1006500004688C42ADF5A26D40F39180021D02EB5F
:10066000C40552F8216079B1012C0DD943680129E4
:100670001D4409D0012304E052F8040F99420544B7
:1006800002D001339C42F7D10DF10C09CDF8009056
:100690006A8AB5F91010B5F90E0001230BF0E4FCDD
:1006A000A6F118080746002870D00021A02011F0FC
:1006B00009FE8246002867D0B5F91620384CA8EB11
:1006C0000203002BA8BF002627DBB5F914300093E6
:1006D00006F11801294404AB38460BF045FD00280B
:1006E000C9F8000029DBB5F91030B5F91620B3F5CB
:1006F000FA5F164432D0206805F060FEB0F5207F26
:10070000F9DB4FF42072206804A905F0E3FDB5F988
:100710001620A8EB0203B342D7DA38460BF010FDDF
:10072000504611F0EFFD206805F050FE0028FAD188
:1007300001200DF5A26DBDE8F087B5F914300093E6
:100740000022114604AB38460BF00EFDB5F910300F
:10075000B5F91620B3F5FA5F1644CCD14FF4A07367
:100760000093B5F9142004A9A4AB504611F0D2FDB2
:100770004FF42072A4A904A817F030FCBBE70020B6
:100780000DF5A26DBDE8F08700BE95E700BE002123
:10079000A02011F097FD824600288DD1F4E700BF1C
:1007A0000C0AFE1F38B50568002D0FDD00EB850231
:1007B000002302E001339D4208D052F8044FA142C9
:1007C000F8D11946FFF742FF012038BD002038BD9F
:1007D000F0B49DF81040012C28D074BB01EB41050A
:1007E00005EBD575B3EB650F28DB012926DD9E1ED1
:1007F000002E23DD8D1E6D08214600F1010C01E065
:10080000B4421BDA10F8113013701CF81130537019
:1008100010F811707B40DB43A942937004F103048C
:1008200002F1030201F10101EAD107E011EB8104B9
:1008300048BF0334B3EBA40F03DA00242046F0BC16
:1008400070470329F9DD1E1F002EF6DD0C1FA408DA
:10085000013404EB8404054600212B7813706B7877
:100860005370AB789370EB78D37095F800C06F78C5
:10087000A87883EA0C037B4043400531DB43A14267
:10088000137105F1040502F10502D7D0B142E4DB92
:100890000C46D3E72DE9F04F066814689DF824A0B4
:1008A0008E423CD2DFF8E8B0B4463CF8025BA5F5D6
:1008B0005847B7F5806F38D2614562D9B6F802E083
:1008C000AEF55C48B8F5806F43D24FF004090EF5E1
:1008D000105505EB8725C84606EB090C04EB090EFD
:1008E0009E4530D80EF1FF36AEEB080705F03F0409
:1008F00064F07F0406F80149B7424FEA9515F5D137
:10090000C8F1010409F1FF39A6441BF808700EEB89
:10091000090466463D4361450EF8015CC4D80023D6
:10092000066014601846BDE8F08FBAF1000F04D1DC
:10093000A5F55C47B7F5806F1DD37F2D10D804F166
:10094000010E9E4513D90223066014601846BDE8C7
:10095000F08FBAF1000F0ED04FF00309C846BDE783
:10096000B5F5006FF8D24FF00209C846B6E77446F5
:1009700066460027CEE70323066014601846BDE8EC
:10098000F08F0123066014601846BDE8F08F00BFA9
:10099000944805000378432B01D00020704743782A
:1009A000592B00F10102F8D112F8013F482BF4D184
:1009B0005378442BF1D140680728D4BF0020012090
:1009C000704700BF07292DE9F041044629DDFFF7F4
:1009D000E1FF18BB2378FF2B1DD02568642D1DDC9B
:1009E000002D21DD271D261F07EB850006EB850660
:1009F000A046AD00031B8B4210DCD8F80430072B57
:100A00000CDDFFF7C7FF50B1B0450DD058F8040F0B
:100A100028443844EEE76378FE2BDED10020BDE8A1
:100A2000F0810229D9DDD5E70120F8E72DE9F04F63
:100A3000074683B09946002900F00E811F2A40F333
:100A4000BF8000234B600D463A682F60531E3E1D49
:100A5000012A57F8221098464FEA820B06EB8204CF
:100A600007EB820A0ED97868012B04440AD0B446F9
:100A7000012004E05CF804EF8342744402D00130AA
:100A80009042F7D1072970DC022976DC2046CDE9B7
:100A90000032FFF797FFDDE90032002873D1A2F1A1
:100AA00002080122ABF1080A6A61D7F800C0B2441B
:100AB000C346DAF8001006EB8C00BBF1000F6FD0D4
:100AC000BCF1010F10D97A68B8F1010F104400F0A1
:100AD000E0803446012204E054F804EF42457044BB
:100AE00002D001329445F7D10093FFF76BFF009BD2
:100AF000E860002870D00BF1FF313A6856F821A069
:100B0000884606EB820400296DD14FF0010BBAF143
:100B1000070F7DDD2046FFF73DFF002800F0A58090
:100B2000BAF1100F74DDAAF1110204F1100322F0E2
:100B300007021A44083402E00834A24268D023783D
:100B4000432BF9D16378592B04F10100F4D110F84B
:100B5000013F482BF0D14378442BEDD16368072B3C
:100B6000EADD01238B462B6154E02046CDE90032BB
:100B7000FFF710FFDDE9003228B92078FF2885D182
:100B80006078FE2882D100216961D7F800C0DAF8C8
:100B900000109B4606EB8C001346BBF1000F8FD173
:100BA0000093FFF70FFF009BE8600146002869D023
:100BB000991E3A6856F821A0884606EB820412E096
:100BC0006FF001030025B9F1000F01D0C9F8003022
:100BD000284603B0BDE8F08F3A68DAF800A059461D
:100BE00006EB82049B46012A91D97B68B8F1010F7C
:100BF0001C448CD03046012304E050F804CF434518
:100C0000644484D001339342F7D1BAF1070F81DCF9
:100C100000232B613C680BF1FF3106EB840256F890
:100C200021C079B1012C0DD97B6801291A4409D062
:100C3000012304E056F8040F9942024402D0013324
:100C40009C42F7D1BCF1020F02DD1378FF2B0ED0CE
:100C50000023E961AB60B6E7202017F0A1F9054653
:100C60000028ADD001234360EEE62861D2E7537837
:100C7000FE2BEDD101EBD17101234910AB60E9618D
:100C80000023A0E73C68DAF800A09B4606EB84044A
:100C90003DE70093FFF796FE009BE86000289BD09D
:100CA0003C68991E06EB840456F821A02FE700BF8C
:100CB00040B108B543680BB9002008BD17F078F9BA
:100CC000002008BD0020704708B1C06970474FF090
:100CD000FF30704720B100680368013300EB8300E8
:100CE000704700BFE8B1C3698B421BDD03681A4639
:100CF00030B452F8045B013102EB85000FD0012DB6
:100D00000DD95B680129184409D0012304E052F889
:100D1000044F8B42204402D001339D42F7D130BCB6
:100D20007047704700207047E8B14369E3B103683A
:100D30001A4630B4846952F8045B013C02EB85002A
:100D40000FD0012D0DD95B68012C184409D0012367
:100D500004E052F8041FA342084402D001339D422C
:100D6000F7D130BC704770471846704738B50C460D
:100D70000546FFF7D9FF0346C8B1EA69A24216DD6E
:100D8000024652F8045B02EB85007CB1012D0DD9BF
:100D90005B68012C184409D0012304E052F8041FB9
:100DA000A342084402D001339D42F7D138BD002050
:100DB00038BD00BF08B5FFF795FFBDE8084005F056
:100DC000E9B900BF034670B453F8045B044603EB73
:100DD000850012B153F82160166081B1012D0ED942
:100DE0006268012910440AD01A46012304E052F82F
:100DF000044F8B42204402D001339D42F7D170BC96
:100E0000704700BF80B1C3698B420DDD10B48468A8
:100E100034B1013100685DF8044B1944FFF7D2BFCB
:100E200000205DF8044B7047002070472DE9F04F1B
:100E300007468FB000285ED09946C3698B4288462A
:100E400059DD924603AAFFF7DDFF0022CDE9092212
:100E5000CDE90B2204460D92B9F1000F37D00028DE
:100E600036D0039B03EBD371012B4FEA61012EDDDA
:100E7000134615461646481E0AF1010CB2B12288E7
:100E8000092A17D00A2A1BD19C450D9440D0013560
:100E90008D42CDE90966CDE90B6603F101030D969C
:100EA00004F1020413DA099A002AE8D1228809948D
:100EB000092AE7D10A9AD2B10B9A0AB30C9A1AB34B
:100EC000A842E1D001358D4204F10204EBDB4C462F
:100ED0001A9B43B141463846FFF748FF18B11A9AAA
:100EE00010F80A30137020460FB0BDE8F08FA8420A
:100EF0000A94E7D1C8E7002420460FB0BDE8F08F80
:100F0000A8420B94DED1BFE7A8420C94DAD1BBE72C
:100F1000DDE90B3B00269D1C59460DF1210305AA76
:100F20000495009604A806ADCDE90666ADF82060EC
:100F30000595FFF7AFFC059B06A81E7016F0F8FF9D
:100F4000643002D189F80060C1E7189B0096DDE9A2
:100F50000951013B4B4405AA04A8CDF8149004950F
:100F6000FFF798FC059B1E70199B002BAFD0A11EAC
:100F70000DF1210305AA0BF10205009604A806ACA9
:100F800004950594FFF786FC059B06A81E7016F0D5
:100F9000CFFF199B18609AE70FB410B582B004AB6D
:100FA00053F8044B019300F0D9F820B902B0BDE822
:100FB000104004B0704700F0B7F8019B0848224683
:100FC0004FF4807117F0F2FDFF28EFD80146044876
:100FD00000F082F802B0BDE8104004B0704700BFD6
:100FE0003CA0FF1F00283CD070B5002984B00D46FE
:100FF00034DBD0E9011304461B68006816469847A5
:10100000A8B9A36868461B6A9847034688B9A368CD
:1010100020681B6902A99847034650B9002E0BDCD3
:101020001149124A124B0C6000201560187004B070
:1010300070BD184604B070BD236899783046C1F37E
:10104000800101AB41F2883201F0A8FCA36820685E
:10105000DB6801A998470028E2D0E8E7032004B044
:1010600070BD0320704700BF180AFE1F8401FE1FD9
:101070008001FE1F144B2DE9F0411E68CEB1134BC9
:101080001B78B3B9DFF84C8098F8003003F0FF0705
:10109000B3B9B368044630685B680126154688F822
:1010A00000600A462146984730B9094B1D60BDE8EB
:1010B000F0810720BDE8F08188F80070BDE8F0817C
:1010C0000820BDE8F08100BF180AFE1F8001FE1F46
:1010D0001C0AFE1F100AFE1FF8B50F4B1C68ACB1AE
:1010E0000E4A127892B90E4D0346287800F0FF0799
:1010F00080B9A268206894680E4601222A701946B9
:101100003246A04720B9074B1E60F8BD0720F8BD46
:101110002F70F8BD0820F8BD180AFE1F8001FE1FC1
:10112000110AFE1F140AFE1F38B5084D2B785BB15B
:1011300044F6206401E0013C06D00121642003F064
:101140004DF82B78002BF6D138BD00BF110AFE1FD9
:10115000014B1878704700BF100AFE1F024B186839
:10116000003818BF01207047180AFE1F0F4B1B687C
:10117000CBB10F4A1278B2B99A6810B50446E1B201
:1011800018685369984738B9A31E012B05D9012C5B
:1011900007D1084B0020187010BD074B032C1870A6
:1011A000F7D0002010BD0720704700BF180AFE1FAF
:1011B0008001FE1F100AFE1F110AFE1F10B50B4C06
:1011C000206890B10A4B01201870FFF7CFFF022072
:1011D000FFF7CCFF23689A681868D3699847054AD7
:1011E0004FF0FF3100231160236010BD180AFE1F6D
:1011F0008001FE1F8401FE1F0120FFF7B7BF00BF63
:101200000FB400B5124B1B6883B0DBB105AB019383
:10121000FFF78AFF019B0F48049A4FF4807117F083
:10122000C5FCFF2805D9032003B05DF804EB04B02A
:10123000704701460748FFF74FFF03B05DF804EB26
:1012400004B07047072003B05DF804EB04B07047AA
:10125000180AFE1F3CA0FF1F0B4B02681B689A4236
:1012600000D070470379012B06D0022B00D07047C5
:10127000064B00221A707047054B064A1B68002176
:101280001170002BEDD018478401FE1F110AFE1FBC
:101290001C0AFE1F100AFE1F00F0B4BA022800D07C
:1012A00070470249024801F05FBE00BFD44F0500FD
:1012B0003CA1FF1F10B5064C064822784FF48171FF
:1012C00001F08EFD2368B3FA83F35B09236010BD40
:1012D000209FFF1F3CA1FF1F104B1B78312B11D00B
:1012E000322B04D00E4A0D480121FFF7C3BE0D4B2F
:1012F0001A78002AF6D000221A700848084A0121FC
:10130000FFF7B8BE074B1A78002AEBD101221A70FA
:101310000248034A0121FFF7ADBE00BFAC9CFF1F8E
:10132000D9120000220AFE1FF0B58BB01C460646FB
:1013300018681D4B079317460D4604F03DFE002329
:10134000294623603046FFF7CDFC0346304608931C
:10135000FFF7C0FC154A00970DF11C0C40214CF220
:101360005033CDE90132CDE9031C4FF4487301221B
:1013700008A904F039FC206060B10D4B1B689E4247
:101380000CBF0C480C482946FFF706FE0B4B1D60AE
:101390000BB0F0BD07990A48FFF7FEFD00BE074BF2
:1013A0001D600BB0F0BD00BF2EF8FFFF0000104025
:1013B000449EFF1FC4480500E8480500189FFF1F12
:1013C0009C4805002DE9F04FE3B0FFF7C1FE00286F
:1013D00000F0AA81B84C206804F0F8FFB0F5A07FB7
:1013E000C0F29D80B54AB64B11681A688A4240F037
:1013F000DE80206812A94FF4A07204F0A7FF002835
:1014000040F0EC80AF4A12AB10681946A02204F0FD
:10141000B7FAAD4B1B78002B40F0CF80AB4FDFF815
:10142000E8823868A02212A904F0EEFD12A9044651
:10143000A022D8F8000004F0E7FD0546002C72D188
:1014400009AE4FF0FF3C234607A908AA3868C6F842
:1014500000C004F06BFE3868DFF894A2DFF8C49295
:1014600004F058FE02463868059204F0ABFE83464D
:101470009748029401962023DAF80010059A006834
:1014800000930AABFFF7D2FC059A3068089B0093E3
:101490001146079B02900AAA8E48CDF804B0FFF7C8
:1014A0007BFDD8F8000004F099FD386804F096FD43
:1014B000012240F20111884801F092FC4FF47A7148
:1014C000322002F08BFE224640F201118248834C0A
:1014D00001F086FC012389F80030FFF751F8804BBA
:1014E0003168002D18BF1C46A1F19603082B00F2AD
:1014F000CE807C4F7C4D3B682B602046FFF752F935
:10150000002800F0D480FFF77FF8002389F800302E
:10151000DAF800303A682A60002B00F00B810120D5
:1015200063B0BDE8F08F00285CD0704B9C4200F0A7
:101530003781984200F034816FF4FB639C42EED116
:10154000A042ECD16A4B1B68012BE8D1694C664D77
:1015500023682A68A033B3EB021F2360DFDD3868FD
:10156000654E04F037FE002800F01F812B683268BA
:101570009342C0F222816148FFF70EFD544A534B5B
:1015800010685F4A0021FFF7CFFE5E4A5E4B10688D
:101590005E4A0021FFF7C8FEFFF78CFE514941F279
:1015A000707300220B60336022600120B8E7584856
:1015B00019600022FFF7F0FC1BE7FFF7B5FD0123E0
:1015C0000093544A4FF4C8734FF4A07112A8FFF768
:1015D000FFF801464F48FFF77FFD1FE74E48FFF732
:1015E000DBFC0FE709AE034608AA07A94FF0FF345A
:1015F000D8F80000346004F099FDD8F80000DFF856
:10160000F0A0DFF8209104F085FD0446D8F8000032
:1016100004F0D8FD83463B480196202302952246DC
:10162000DAF80010006800930AABFFF7FFFB32689E
:10163000089B3A4800932146079B0292CDF804B0DC
:101640000AAAFFF7A9FCD8F80000244C04F0C6FC55
:10165000386804F0C3FC012240F201111E4801F079
:10166000BFFB4FF47A71322002F0B8FD40F2011155
:101670002A46194801F0B4FB012389F80030FEF72F
:101680007FFF3168A1F19603082B7FF632AFA1F1FD
:101690008203092B5FD9A1F18C03092B71D9204654
:1016A000114D104FFFF77EF800287FF42CAF316802
:1016B0001B48FFF771FC26E7549EFF1F1C9FFF1F6E
:1016C000289FFF1F409EFF1F220AFE1F4C9EFF1FE8
:1016D000449EFF1F444A05003CA1FF1F5024040004
:1016E000502404008C01FE1F9001FE1FCCF7FFFF69
:1016F000189FFF1F249FFF1F8801FE1F0C4A050033
:10170000A40AFE1F489EFF1F509EFF1FF4CDFE1F20
:101710000C490500B09CFF1F24490500944A0500B0
:1017200090490500210AFE1F264A27480121FFF79C
:10173000A1FC4FE6254A264B1068264A0121FFF7F7
:10174000F3FD254A254B1068254A0121FFF7ECFDE2
:10175000FFF7B0FDE3E6012240F20A412148224DA5
:1017600001F03EFB1F48012240F20B4101F038FB23
:101770001E481F4FFFF710FC1E4B1F4A31681A60AE
:10178000BBE6002240F20A411648174D01F028FB43
:101790001448002240F20B4101F022FB1748E8E711
:1017A0001748FFF7F9FB0020BAE6D8F8000004F06C
:1017B00011FD00287FF4DAAEDDE603F5FA732B6045
:1017C000ADE600BFD9120000AC9CFF1F449EFF1F76
:1017D0004C9EFF1FA40AFE1F489EFF1F509EFF1F26
:1017E000F4CDFE1F3CA1FF1F9001FE1F44490500E0
:1017F0008C01FE1F249FFF1F00CA9A3B6849050009
:10180000B84905002DE9F04F2DED028B012291B072
:101810004FF4A0616048614CDFF8C891DFF8C8A1BF
:1018200001F0DEFA012240F201115B4801F0D8FA22
:1018300001224FF48171584801F0D2FA58484368A8
:101840004FF4E1221978FFF7CDFB564B56491D683E
:101850005648FFF7A1FB564A56495748FFF79CFBED
:10186000286A05F114010EC900905448FFF794FB53
:101870005349544800232022FFF7D8F80023206062
:10188000514952482022FFF7D1F80027504BB84663
:101890001860B8F1000F67D04D4B4E481E684CF2EF
:1018A00050324146FFF778FB3046FFF70DFA031E32
:1018B00005934EDD002421463046FFF713FA034618
:1018C00030460693FFF706FA4FF44873012206A943
:1018D00004F042F922460346054641464846FFF7D2
:1018E0005BFB4CF250339D4250DC22464146504651
:1018F000FFF752FB9FED388A002500E001352146B5
:101900003046FFF757FA84464FF0200E65450DF13B
:101910001C0B2A460DEB0E032146304612DA002737
:10192000CDE901B7CDF800E0FFF780FA9DF920304E
:10193000002BE3D0079B18EE100A2A4608A9FFF7F0
:101940002BFBDBE72548FFF727FB059B01349C4277
:10195000B1DB2248FFF720FBB8F1010F46D008F1B8
:101960000108B8F1000F97D10C4B1A481E684CF2D1
:1019700050324146FFF710FB3046FFF7A5F9031E32
:10198000059397DC1548FFF707FBE8E71448414645
:10199000FFF702FB00BEA8E73CA1FF1F449EFF1F0C
:1019A000984F05009CB17F40E04A0500204B0500A0
:1019B000F04A0500FC4A0500084B0500284B0500CD
:1019C000640AFE1F009C0100840AFE1F009C0100A7
:1019D000489EFF1F444B0500384C0500B4490500E4
:1019E000C04B05007C4B0500044C05008C4B8D481A
:1019F0004FF4346240F6683104F0F4FB002840F004
:101A000004818948894D0022402103F08DFF286020
:101A1000002800F0FF809FED860A04F05DF88549FC
:101A2000854B0868854A0021FFF77EFC8449854B79
:101A30000868854A0021FFF777FC0121834A844822
:101A4000FFF718FB8349844801F006FB002840F0AB
:101A5000D780814801F0CEFA002840F0CC807F4C3E
:101A60007F48214601F0F8FA61687D48023901F0AB
:101A70003FFC002840F0BA80794883685A6B032104
:101A800061F314425A6301F0B5FA002840F0A980CE
:101A90007449754801F0E0FA61687348033901F050
:101AA00027FC002840F098806F4883685A6B032118
:101AB00061F314425A6301F09DFA002840F08780D8
:101AC0006A496B4801F008F900287BD169496A48E6
:101AD00000F058FA002870D1684E694F664C012317
:101AE0003370042320223946204600F01FFA0028D4
:101AF000F7D1024640F201116248634C01F070F9DF
:101B00006248FFF749FA01232370FEF739FD604868
:101B10006E21FEF747FE00284AD0FEF775FD002330
:101B20002370FFF74FFC0028FBD1DFF80C81454FF5
:101B30000446D8F8000004F03FFA3E4BC8F80040D5
:101B40001868FFF7B5F83B4B38681C6004F034FAAE
:101B50003B4B3C601868FFF7ABF8394B46481C60BC
:101B6000347000F0F9F83C482D4E01F03DFA3A4847
:101B700001F0A0FB3A4801F037FA394801F09AFB2E
:101B8000394801F031FA384801F094FB384801F047
:101B9000FDF8306804F078FB2868346003F096FFA5
:101BA0002C60FFF70BFB11B0BDEC028BBDE8F08F92
:101BB00038486E21FFF7F0F9AFE73748FFF7ECF947
:101BC00000BE89E73548FFF7E7F900BE7EE73448F5
:101BD000FFF7E2F900BE73E73248FFF7DDF900BE18
:101BE00062E73148FFF7D8F900BE51E72F48FFF709
:101BF000D3F900BE40E72E48FFF7CEF900BE2EE72E
:101C00002C48FFF7C9F900BE23E72B48FFF7C4F9BA
:101C100000BEF6E62948FFF7BFF900BE2868FAE6DD
:101C2000549EFF1F4491FF1F240AFE1F409EFF1F6A
:101C300000000042449EFF1F4C9EFF1FA40AFE1F8F
:101C4000489EFF1F509EFF1FF4CDFE1FD9120000BB
:101C5000AC9CFF1FC84E0500BCA1FF1F184F05001C
:101C6000E4A1FF1F284E050044A1FF1FE44D05001D
:101C700014A2FF1FF84D05008CA1FF1F200AFE1FB4
:101C8000989EFF1F3CA1FF1F210AFE1F744D0500F7
:101C900050240400A04D0500584D0500404D05009E
:101CA000204D0500044D0500E84C0500CC4C050016
:101CB000AC4C0500904C05005C4C05007C4C0500CC
:101CC00068B338B50379012B00D038BD174B1849DC
:101CD00003F1400451F8042F1014121618705A70B2
:101CE0000233A342F6D1134C206804F067FB3F286F
:101CF00003DC114A136801331360104B1B787BB16E
:101D00000F4B1B78002BE0D00E4D0F4C04232022EC
:101D10002946204600F00AF90028F7D138BD70475F
:101D200020680249402204F0D5FAE9E7589EFF1FD7
:101D3000949EFF1F549EFF1F1C9FFF1F210AFE1F22
:101D4000200AFE1F989EFF1F8CA1FF1F08B5FFF7FA
:101D5000A3FA002008BD00BF4368002210B502604E
:101D60005A69044622B1936810681B6A98476368F1
:101D70001A6922B1936810681B6A9847636893F9DF
:101D8000023021495809203003F01F02012303FAD1
:101D900002F241F82020BFF34F8FBFF36F8F6268CC
:101DA00092F901205009203002F01F0203FA02F2DA
:101DB00041F82020BFF34F8FBFF36F8F626892F915
:101DC00003205009203002F01F0203FA02F241F80A
:101DD0002020BFF34F8FBFF36F8F626892F904200A
:101DE0005009203002F01F02934041F82030BFF329
:101DF0004F8FBFF36F8FA3681A786FF386121A7034
:101E00000020DA78D87010BD00E100E0F8B5044693
:101E100080689DF81860007810F0400063D11D467E
:101E2000636884F82060D3F814C0E561C4E9031244
:101E3000C4E905000F46BCF1000F1FD0DCF80430E8
:101E4000A56119684888C6F3410320F440501B037C
:101E500020F00C0043F008031FFA85FE0343A1F8AD
:101E60000EE04B808A60002A3FD0DCF80830DCF8B6
:101E700000005B689847002834D163681B69B3B1E0
:101E80005A6865611168F600CA7806F0300646F0B7
:101E9000080622F03C02ADB21643CD81CE704F60F1
:101EA000002F37D09A68186853689847D0B9A2684D
:101EB00094F82000D17A138A0128C9B29BB222D0AB
:101EC000022819D021F0400123F4706341F0200171
:101ED00043F440739BB2D1721382137843F04003F2
:101EE00013700020F8BD0820F8BD8B780D4888607D
:101EF00062F383038B70B8E723F4706343F4706379
:101F000001F09F01E6E723F4706343F4E06341F0DE
:101F10004001DFE7F2B20448486067F38302CA7009
:101F2000C0E700BF2C9FFF1F309FFF1F10B582B07E
:101F3000144600930A4623460021FFF767FF02B0CC
:101F400010BD00BF70B5836A84B004460E46ABB1C5
:101F500093E8070001AD85E80700626811781E71FB
:101F6000E26A9A6019601846636A9847A36A1BB1CF
:101F700095E8070083E8070004B070BD01AD2B466B
:101F8000EBE700BF2DE9F04F0B780F6903F58003F5
:101F900003F5E4631B0285B00D46044603F1040813
:101FA000002F00F02681D7E901120B681268C3F8F0
:101FB00008804FF000601860386890470646002897
:101FC00040F013816B6973B1D3E901100A680668A8
:101FD000C2F804804FF4002010601868B04706462D
:101FE000002840F029812B7803F5800303F5E46392
:101FF0001B02D5E90601002265606062E162A36010
:10200000A2626E7A002E40F00E814FF0B8090822CD
:102010004FF0100E697B286AEF7A95F80AA00378D2
:10202000090341EA470141EA0A0A002B40F0F8801F
:102030004AF0800A90F801C0C178837890F8048053
:102040004FEA4C1729EACC1547EA4C0703FA01FB83
:102050002AF070022F430901B8F1000F06D0B8F141
:10206000020F14BF4FF020084FF0300845792DB112
:10207000012D14BF4EF0010E4EF0030E057A837948
:10208000019305F0030541EA85011143002E40F05C
:10209000CE80437A029390F80B90837A039341F4B5
:1020A0006041EFF3108C012686F310886268664D5C
:1020B0001278D5F800A0C2F1130206FA02F22AEA59
:1020C00002022A602A688CF31088D4E901520023A6
:1020D000FFB25FFA8BFB92F803C0D370177082F8DF
:1020E00001B082F80280C0799072029810735FFA92
:1020F0008EFE0398507389B282F80E9082F80FE03A
:102100001182019982F8201095F90220AF79DFF849
:1021100044C1DFF844A14D484D490CEB020E3F018C
:10212000FFB28EF800734AF8224002F1C00E570940
:1021300050F82E80BF0007F1604707F5614763F351
:10214000104802F01F0240F82E8006FA02F2C7F88B
:1021500080213A6095F901206F790CEB020E3F0166
:10216000FFB28EF800734AF8224002F1C00E570900
:10217000BF0050F82E8007F1604707F5614702F075
:102180001F0206FA02F263F3104840F82E80C7F8E7
:1021900080213A6095F904702A7A0CEB070E12013F
:1021A000D2B28EF800234AF8274007F1C00E7A0910
:1021B00050F82E80920002F1604202F5614263F312
:1021C000104807F01F0740F82E80BE40C2F880611B
:1021D0001660EA7995F9030012018444D2B28CF8B2
:1021E00000231E464AF820402160304605B0BDE875
:1021F000F08F4A69002A3FF4FCAED2E901100B6867
:102200000668C3F804804FF4002018601068B047D7
:10221000064600283FF4E7AE304605B0BDE8F08F33
:1022200042F0B10906E796464FF0B009F2E64FF0EA
:102230000009CDE9029934E7BB6838681B6A984702
:10224000304605B0BDE8F08F0070044000600040EB
:102250004950535200E100E0B0A2FF1F10B4EFF369
:102260000383103B5BB203F1C0011E4A1E4C52F8BF
:1022700021006FF3104042F8210054F82330D3E9D5
:1022800006218A4213D01869F8B193F82040012C36
:102290001ED0022C21D09968496840F82210D969D3
:1022A00001328A429A6102D05DF8044B70475B6844
:1022B0000E4993F903305DF8044B03F01F0001222F
:1022C0005B09824041F82320704798684068E7E73F
:1022D000996809798154D969E2E79C68A48820F853
:1022E0001240DDE700600040B0A2FF1F00E100E007
:1022F000F0B4EFF30383103B5BB203F1C0022B4950
:102300002B4C51F822006FF3104041F8220054F892
:1023100023305868026A12B15578012D16D05A69D7
:10232000DC69944210D0D96811B393F820000128D9
:1023300021D0022898680BBF31F8121051F82210F2
:102340008180416001325A61F0BC7047DC695A6992
:10235000661EB24213D001690029E2D090F9031041
:10236000144801F01F064909B54040F82150D8E74C
:1023700098684160E6E79868895C0171E2E790F946
:10238000036006F1C0077009800051F827C000F112
:10239000604000F5614006F01F06B5406FF3104C39
:1023A00041F827C0C0F880510560BAE700600040DE
:1023B000B0A2FF1F00E100E010B4EFF30383103B75
:1023C0005BB2174A174C03F1C00152F821006FF3BA
:1023D000104042F8210054F823008268D278920716
:1023E00006D54268527A012A02D05DF8044B704744
:1023F0005A090D4C2032012103F01F0301FA03F3A7
:1024000044F82230BFF34F8FBFF36F8F82685DF8BF
:10241000044B13786FF386131370FFF793BD00BF5F
:1024200000600040B0A2FF1F00E100E070B5EFF3D4
:102430000384103C184B64B2002153F82460B36845
:102440001A786FF386121A70DA78D970D5B212073B
:102450000ED4EB0712D405F01405142D16D00F4B33
:10246000C03453F824206FF3104243F8242070BD89
:1024700005213046FFF766FDEB07ECD50421304619
:1024800005F01405FFF75EFD142DE8D13046082154
:10249000FFF758FDE3E700BFB0A2FF1F0060004058
:1024A00030B4D0E9073200214160917093F90530D2
:1024B000264A5D092035012403F01F0304FA03F3C3
:1024C00042F82530BFF34F8FBFF36F8FC36993F985
:1024D0000B305D09203503F01F0304FA03F342F8C3
:1024E0002530BFF34F8FBFF36F8FC36993F9073068
:1024F0005D09203503F01F0304FA03F342F8253089
:10250000BFF34F8FBFF36F8FC36993F909305D0934
:10251000203503F01F0304FA03F342F82530BFF31C
:102520004F8FBFF36F8FEFF3108584F31088C3696B
:10253000074A1C7810684FF00043E34003431360E0
:10254000136885F31088084630BC704700E100E04E
:1025500000700440C0E905120020704770B4046A9E
:102560008378A57805F07B05A5708578A67803F0BB
:10257000030305F00305D21A46F080060B44022D32
:10258000C0E90332A67004D00B78E370002070BC61
:1025900070470B8843F47E43E381002070BC704792
:1025A000C0E90A3241620020704700BF036A30B4BC
:1025B0009A78002502F00B029A70C5608A785A70EA
:1025C0001C7848780A7860F301041C70C978997403
:1025D000D97902F05C0201F0A3010A43DA719A781A
:1025E00042F0700228469A7030BC70474FF0FF33BB
:1025F000C1E90033002070470346880711D5186AE7
:10260000827810B4C9074FF0000402F07B02827098
:10261000204648BF00201C6148BF98615DF8044B0C
:102620007047CA074FF0060044BF0020986170470A
:10263000014B03600020704702010101F0B5846A7C
:1026400085B005460F469446BCB194E80F006E462F
:1026500086E80F00EB691A7884F804C0EB6A226000
:10266000C4E9027320466B6A9847AC6A1CB196E8CD
:102670000F0084E80F0005B0F0BD6E463446E9E770
:102680002DE9F0430B788278C16103F100730024D7
:1026900003F56053047001255B0165F301024D6988
:1026A00003628B694562C0E90A4382704B78022B52
:1026B00003D1D2B263F30102827091F90B50B24B95
:1026C0008E7A6A09203205F01F07012404FA07F701
:1026D00043F82270BFF34F8FBFF36F8FAB4AAC4FFD
:1026E00005F1C00C03EB050852F82CE03601F6B2F8
:1026F0006FF3104E42F82CE088F8006347F825008D
:1027000091F905500E794FEA551C0CF1200C05F09B
:102710001F0E04FA0EFE43F82CE0BFF34F8FBFF3F9
:102720006F8F05F1C00C03EB050852F82CE0360161
:10273000F6B26FF3104E42F82CE088F8006347F8C9
:10274000250091F907508E794FEA551C0CF1200CA9
:1027500005F01F0E04FA0EFE43F82CE0BFF34F8F76
:10276000BFF36F8F05F1C00C03EB050852F82CE0A6
:102770003601F6B26FF3104E42F82CE088F8006391
:1027800047F8250091F909500E7A4FEA551C0CF1D3
:10279000200C05F01F0E04FA0EFE43F82CE0BFF3E8
:1027A0004F8FBFF36F8F05F1C00C2B4452F82CE014
:1027B0003601F6B26FF3104E42F82CE083F8006356
:1027C00047F82500EFF3108584F31088714B0E78DD
:1027D0001A684FF00044F44022EA04021A601B68B1
:1027E00085F31088036A00229A701A715A729A72DD
:1027F000DA725A830C7840F21F32E240D20740F17D
:10280000B380402506244FF47842DD741C779A8209
:10281000CA784C788D78D200012C42EA051200F07B
:10282000AF80022C14BFF225E225CC69D2B21A7017
:102830009D71227B5200D2B25A7300256278A17832
:102840001D722578D2014901AE1ED2B201F02001DD
:10285000012E42EA010240F28A806168D2B2DA7146
:102860008A785A701C784E780A7866F301041C70D6
:10287000C9789974D97902F05C0201F0A3010A4386
:10288000DA710022C0E90322C0E90522D0F81CC099
:102890003E4C9CF90560DFF800E106F1C0077109C4
:1028A00054F82780890062F3104801F1604144F830
:1028B000278001F56141012706F01F0607FA06F699
:1028C000C1F880610E609CF90B6006F1C0087109C7
:1028D00054F82890890001F1604162F3104901F534
:1028E000614106F01F0644F8289007FA06F6C1F881
:1028F00080610E609CF9076006F1C008710954F808
:102900002890890001F1604101F5614162F31049AD
:1029100006F01F0644F8289007FA06F6C1F8806111
:102920000E609CF9096006F1C00C710954F82C8006
:10293000890062F3104801F1604144F82C8001F5F0
:10294000614106F01F0605F00305B74045F070052C
:102950004FF6FF76C1F880710F609D700681C0F858
:1029600004E01046BDE8F08306221A7750E7022DF6
:1029700008BF42F01002FF21D2B25970DA7180E72D
:1029800042F04002F22550E700E100E00060004024
:10299000B0A2FF1F00700440554943532DE9F04F8A
:1029A0001F465C4CFF258023BD70FB705A4B266A86
:1029B0001B685A4C3D78C6F3026C8BB0C6F30236E6
:1029C00003FA0CF3F340029100260992A3FB0412D0
:1029D000CDE90706CDE900126FF3820506931B0AC5
:1029E0003D70A34605930396099B5B456EDA9DF8FF
:1029F000203004934FF00008494B049A13F8086004
:102A0000C6F3400AC6F380064AEA0603934253D14E
:102A1000444B33F81890079B03FB09F9069BB3FB63
:102A2000F9F4651EFF2D47D804FB09F41CE0059B53
:102A3000B4FBF3F37F2B03FB00F03DD90028B8BFB4
:102A4000FF300012A0F5C330A0380028B8BF4042C4
:102A500083453FDC3B78039AFA7043F00403A4EB10
:102A600009043B7045B3013D2246DDE90001E3174F
:102A700015F0AAF8029A002AD9D1A0F5C333A03BD9
:102A8000002BB8BF5B429B4516DD254A787812F8CB
:102A900008103A78BD70C1F3000464F386126AF33B
:102AA0000412C1F3C10166F3C30261F301009B4646
:102AB000029B3A707870039308F10108B8F10D0F8A
:102AC0009AD1089BFBB1099B9B451FDC00200BB0F2
:102AD000BDE8F08F124ABD7012F808103A780393DF
:102AE000C1F3000C6CF3861297F801C06AF304126C
:102AF000C1F3C10166F3C30261F3010C83463A706E
:102B000087F801C0A6E7012308936DE703200BB007
:102B1000BDE8F08F00E00140849FFF1FA086010008
:102B20005C5105006C51050030B4EFF30383103B9A
:102B30005BB203F1C0011B4A1B4C52F821006FF33A
:102B4000104042F8210054F82300C3691B691BB1EF
:102B500003691BB130BC7047036963B9026A93789B
:102B600003F07F0343F004030021937030BCC16085
:102B70008022FFF763BD827802F003010229C16859
:102B800009D0046A0D78E57002F003029B1A0A442A
:102B9000C0E90323DDE70C88056A44F47E44EC8138
:102BA000F2E700BF00600040B0A2FF1F10B582B086
:102BB000EFF30383103B5BB203F1C0011C4A1D4CD1
:102BC00052F821006FF3104042F8210054F82340DE
:102BD000A27802F00303022B236A0CBF198A5979E9
:102BE000A3690CBFC1F30801C9B2019133B92046F2
:102BF000042202B0BDE81040FFF720BD02F003023E
:102C000001A9606915F0EAF9D4E90521A37803F078
:102C100003031A44C91AC4E9052109B102B010BD61
:102C20002046012202B0BDE81040FFF707BD00BFFB
:102C300000600040B0A2FF1F10B5EFF30384103C0A
:102C40000A4B64B2002153F82400026A937803F01F
:102C50007B0393700222FFF7F1FCC034044B53F85E
:102C600024206FF3104243F8242010BDB0A2FF1FB0
:102C70000060004038B5EFF30384103C144B64B29D
:102C800053F82400837803F00303022B036A0CBF7C
:102C9000198A59791D790CBFC1F30801C9B205F031
:102CA0003802ED0604D51D7FED0758BF42F0400203
:102CB0001D7905F0C7051D71FFF7C0FCC034054B39
:102CC00053F824206FF3104243F8242038BD00BF8E
:102CD000B0A2FF1F00600040CB6803F5800303F53E
:102CE00084631B0270B4C0E90113EFF31085012463
:102CF00084F31088214B9A6822F480429A609B6882
:102D000085F310888B780E88CD7882681B0743EA9C
:102D1000061343EA4573D1E901561360184BC560A9
:102D2000002546610360056191F91030AB4221DB5B
:102D30004A7C144E03F1604101F561411201D2B2A7
:102D400081F8002346F823000F4903F1C0005A0917
:102D5000920051F8206002F1604202F5614203F0F6
:102D60001F0304FA03F365F3104641F82060C2F82C
:102D700080311360002070BC704700BF00700440B9
:102D800054504700B0A2FF1F00600040436893F911
:102D90001030002B1BDB5A0910B420320E4C0121DD
:102DA00003F01F0301FA03F344F82230BFF34F8FFF
:102DB000BFF36F8F4268094B92F910205DF8044B06
:102DC000002143F8221000230360184670470023B7
:102DD00003601846704700BF00E100E0B0A2FF1F8B
:102DE000C8B2012383404AB91A040B0A5B0103F1FC
:102DF000804303F5802300209A6070479AB2F4E77D
:102E0000F8B500284DD00B680024043303EBC00153
:102E1000254640F2024040F2034640F204470FE0EC
:102E2000B24230D153F8042C02F0B852B2F1807F94
:102E300014BF44F0020445F0020508338B4211D060
:102E40001A888242ECD153F8042C02F0B852B2F145
:102E5000807F03F1080314BF44F0010445F001052D
:102E60008B42EDD1E443E4B2012001F045FA0E4B70
:102E700093F8BB042843044083F8BB440120BDE819
:102E8000F84001F009BABA42D7D153F8042C02F045
:102E9000B852B2F1807F0CBF45F0040544F0040441
:102EA000CBE70546FF24DFE700E001400146F8B527
:102EB000044631F8040BFFF7A3FFEFF31082012360
:102EC00083F31088DFF89CC0DCF800301BB923497D
:102ED0004020CB70C870DCF800300133CCF80030F3
:102EE00082F31088278817B362681D4D013FBFB277
:102EF00002F1080101EBC70700E008311068928871
:102F0000130AD4B2C20304EB031609D555F826E020
:102F100020F480326FF3104E45F826E045F8262065
:102F20001B0123448F4245F823000A46E5D1EFF305
:102F30001082012383F31088DCF8003023B1DCF821
:102F40000030013BCCF80030DCF800301BB90349FD
:102F50008020CB70C87082F31088F8BD000D04404B
:102F600000080440ACA2FF1F08B5034B03600846ED
:102F7000FFF79CFF002008BD54524F5010B582B09F
:102F8000EFF30384103C164B164964B253F8242027
:102F900050790B5C03F00303032B0FD0C03451F8BE
:102FA00024306FF3104341F82430936823B1D26882
:102FB000CDE900206846984702B010BD936823B160
:102FC000D268CDE9002068469847064BC03453F8D4
:102FD00024206FF3104243F8242002B010BD00BF3C
:102FE000B0A2FF1F006000400346D3E90223002087
:102FF000936070470346D3E9022300205360704773
:10300000002824DB30B400F16043114D114C03F56E
:1030100061430901C9B283F8001345F8202000F18B
:10302000C001430954F821509B006FF3104503F190
:10303000604344F8215003F5614300F01F00012272
:1030400002FA00F0C3F8800130BC18607047704786
:10305000B0A2FF1F006000402DE9F0410B7C0C4640
:103060000121054601FA03F2C2F30C006C60EA602C
:10307000002840F0C0802974D4E9050103F58003DD
:1030800003F5F0631B020022C5E90621E669AB6087
:103090006861EFF31080012787F31088634B94F881
:1030A00010C09968BCF1080F34BF6FF0200C6FF0AE
:1030B000400C01EA0C0199609B6880F31088AB68B2
:1030C00061684FF42540D6E907EC1860DA62DA63EC
:1030D0009A64207AC005D8624FF0004018615861A8
:1030E0009861481E5A629A62C3F81CE0C3F820C077
:1030F000986658662078002872D1F94001394FF05F
:10310000030C3278596599657AB1717894F800E0CA
:103110000A01BEF1020F42EA81127BD0002914BFDE
:10312000092106210A4342F48072B178B9B196F8B8
:1031300003E094F800804FEA0E11B8F1020F41EA63
:103140008E1164D0BEF1000F14BF4FF0090E4FF086
:10315000060E41EA0E0142EA014242F0807294F802
:1031600010E0FF2121FA0EF1C9074FF0000E44BF15
:1031700000215964C3F838E0C3F888E096F82510B8
:1031800096F82480490741EA4831012842EA0102C1
:103190004FF4AA08E968C3F8408004BFC3F84CE0C4
:1031A000C3F850E0D9605A63C3F830C01F63617C34
:1031B00094F912002A46FFF723FF96F8261096F995
:1031C00028002A46FFF71CFF96F9290096F82710D9
:1031D0002A46FFF715FF164B2B600020BDE8F08153
:1031E00001281DD9E1685A6E41B9124FDFF84CC071
:1031F0004FF0FF3185E700222A743DE7013291420A
:103200000AD30D4FDFF838C04FF0FF3179E74FF0A8
:10321000090E9EE7092185E701394FF0030C70E79D
:103220004FF0030C4FF0FF316BE700BF007004401C
:103230005450470001000202010003030300020290
:1032400003000303F0B5836985B004460F461646B4
:103250009BB193E8070001AD85E807001F71E269A3
:103260001A609E60184663699847A3691BB195E888
:10327000070083E8070005B0F0BD01AD2B46EDE780
:10328000430910B40949203300F01F040122A24071
:1032900041F82320BFF34F8FBFF36F8F044B5DF8CE
:1032A000044B002243F82020704700BF00E100E0FB
:1032B000B0A2FF1F10B5D0E90224436800210160CD
:1032C0009460516393F91200DC69884201DBFFF7D7
:1032D000D7FF94F92800002801DBFFF7D1FF94F90C
:1032E0002900002801DBFFF7CBFF002010BD00BF45
:1032F0008368002099647047F0B4EFF30383103BB8
:103300005BB2174A174C03F1C00152F821006FF36A
:10331000104042F8210054F8230044682478012C1E
:1033200015D1D0E90265B5600025B564F564356551
:1033300052F821600C4F65F310465D09603503F0CB
:103340001F0304FA03F342F8216047F8253043696C
:1033500023B10022F0BC1146FFF774BFF0BC7047E8
:1033600000600040B0A2FF1F00E100E010B40023A5
:103370004268036092F91130002B0EDB5A09144C9D
:103380002032012103F01F0301FA03F344F8223035
:10339000BFF34F8FBFF36F8F42680E4B002119763A
:1033A00092F913308B420DDB5A0909482032012172
:1033B00003F01F0301FA03F340F82230BFF34F8FED
:1033C000BFF36F8F034B5DF8044B002018757047F7
:1033D00000E100E000E07F40F0B4374B374A384E60
:1033E00004460121002084F8340083F816141D6A75
:1033F00011681B6AC5F3026201FA02F2C5F3027595
:10340000C3F30263EA409940B24221FA03F14FD973
:1034100001F5742302F574222A492B4E2B4F03F237
:103420003F2302F23F22A1FB0353A1FB0212920CA5
:1034300002F5F052A6F8E4209B0C254A254D2649BA
:1034400043F6B85606FB03F6A2FB06C6B608A6600E
:1034500040F6D86606FB03F6A2FB06C6B608E66091
:103460005E00A2FB06C6B6082661542606FB03F6DC
:10347000A2FB06C6B608666144F2506607FB03F776
:1034800005FB03F501FB03F106FB03F3A2FB07C7F2
:10349000A2FB05C5A2FB01C1A2FB0332BF08AD0818
:1034A00089089208C4E90852A761E161F0BC70473D
:1034B0004FF4FB70F0BC704700E00140849FFF1F99
:1034C000FF083D0083DE1B4300E07F4038AF04006F
:1034D000ABAAAAAA80DE0F00A0F703002DE9F843EB
:1034E0000B7841600446002B59D0CB684A68826350
:1034F0000026C4E90F63DFF8BCE0DFF8BCC02A4F48
:103500002A4D01208EF8180091F911300A7C0CEB3D
:1035100003081201D2B288F8002347F8234003F1D0
:10352000C0085A0955F82890920002F1604202F54D
:10353000614266F3104903F01F0345F8289000FA32
:1035400003F34FF09808C2F8803113608EF81480AE
:1035500091F913208B7C94441B01DBB28CF800336F
:1035600002F1C00147F8224053099B0055F8217031
:1035700003F1604303F5614302F01F0200FA02F217
:1035800066F3104745F82170C3F880211A60204681
:10359000FFF722FF08B9064B2360BDE8F883054A10
:1035A00013761375F3E700BFB0A2FF1F0060004061
:1035B0004E45504F00E07F4000E100E030B5C36B66
:1035C00083B004460A4693B193E803006D4685E84C
:1035D00003001A70226C5A601846A36B9847E36B7D
:1035E0001BB195E8030083E8030003B030BD6D46CE
:1035F0002B46EEE716494FF42A4310B4B1F8844045
:10360000A1F88430B1F8840080B2A4B268B14FF45C
:103610009642002003E0002A08BF4FF4FA70B1F888
:1036200084309BB2013A002BF5D1012C02D05DF819
:10363000044B7047074AA2F80441B2F804319BB228
:10364000002BFAD101235DF8044BA2F8003170473A
:1036500000E07F4000C00140114B124A82B0B3210C
:103660004FF4964001901970D2F8803019040DD4AF
:1036700006E0019B013B0193D2F880301B0405D486
:10368000019B002BF5D1142002B07047054B1B7C29
:1036900013F0100F40F2F51008BF002002B0704781
:1036A00000007E4000E07F4038B5124B1D7CED06E7
:1036B00004460ED4D3F88030194206D0002C08BF3F
:1036C0001446FFF7C9FF204638BD0028F9D120462F
:1036D00038BDD3F88000400402D500201D7C18744A
:1036E000D3F880301942E9D140F2F513002C08BF1D
:1036F0001C46E6E700E07F4030B4037882B04FF428
:10370000964201927BB390F91120264C02F1C00140
:10371000530954F821509B006FF3104503F16043A7
:1037200044F8215003F56143012102F01F0201FA20
:1037300002F2C3F880211A6090F9132002F1C00050
:1037400053099B0054F8205003F1604303F5614393
:1037500002F01F0201FA02F26FF3104544F8205004
:10376000C3F880211A60104A4AF68023A2F88430F8
:10377000B2F884309BB2802B08D10FE0019B013B53
:103780000193B2F884309BB2802B07D0019B002BB1
:10379000F4D14FF4FA7002B030BC7047002002B090
:1037A00030BC70470060004000E07F402DE9F041F0
:1037B00005464068884616461F46FFF79DFF0446AB
:1037C00098BB6B681F4819781F4A80F8D040731E59
:1037D0004344C0F83080436371231370D0231370C7
:1037E00031BB6969D0F88030B20802FB01111A04BC
:1037F00006D429B3D0F880301B0401F1FF31F8D58D
:1038000020464FF4FC720021FFF74EFF0D4B93F85A
:10381000D430A3F10103B3FA83F35B093B70044690
:10382000FFF7E8FE002C08BF04462046BDE8F08103
:103830000322022385F834203B702046BDE8F08146
:103840001424DDE700E07F4000007E4030B543688F
:103850001A7883B00546EAB193F911302F48590917
:103860002031012203F01F0302FA03F340F8213054
:10387000BFF34F8FBFF36F8F6B6893F91330590904
:10388000203103F01F039A4040F82120BFF34F8FEF
:10389000BFF36F8F224BB3F884309BB2002B32D032
:1038A000FFF7DAFE1F4B1E4A4FF496445021019455
:1038B0001970D2F880300446180415D406E0019B34
:1038C000013B0193D2F8803019040DD4019B002BE9
:1038D000F5D1002C08BF1424FFF78CFE00232046EE
:1038E00085F8343003B030BD0D4B1B7CDB060ED4A5
:1038F000002CF1D1FFF77EFE04460023204685F818
:10390000343003B030BD6868FFF7F6FEC8E7002C1E
:10391000E2D1FFF76FFE40F2F514DFE700E100E0CF
:1039200000E07F4000007E40F0B41D4CC36A23637A
:10393000856A1C4B0769E82602221E7082B005F1D9
:10394000040C1A701E462B880197338003E0019BFC
:103950005A1E019203B3D4F880305B05F7D4D0E946
:103960000B2302350232013BAC45C0E90A52036326
:10397000E9D10C4BD0221A7061B1D4F880301A040E
:1039800008D4074A00E039B1D2F880301B0401F1B5
:10399000FF31F8D5002000E0142002B0F0BC7047E1
:1039A00000E07F4000007E4070B505465B080020C7
:1039B00085F83400C5E90A1268682B63FFF79CFE9E
:1039C0000446B0B96B681B78ABB9EE6805E0FFF749
:1039D0006BFE2B6B04469BB1C8B931462846FFF7F6
:1039E000A3FF6B681B7818224FF480510446002B0C
:1039F000EDD0204670BD0123064685F83430ECE753
:103A0000FFF7F8FD002C08BF0446204670BDFFF705
:103A1000F1FD204670BD00BF2DE9F84321F03F01C4
:103A2000002304468162026380F834304068FFF767
:103A300063FE00284CD16368197889BBE668274F7C
:103A4000DFF89C900123A7F8E0304FF02008A36A2C
:103A50003B63226B89F800804033D020013A89F81B
:103A60000000A362226366B1D7F88030180408D43E
:103A7000334600E0CBB1D7F88020120403F1FF33C6
:103A8000F8D50025A1B9284619224FF40051FFF7B7
:103A90000BFE236B054673B1A8B963681978D6E7A6
:103AA0000223064684F83430C9E714250029EAD0F9
:103AB0002846BDE8F883FFF79DFD002D08BF0546A9
:103AC0002846BDE8F883FFF795FD2846BDE8F88352
:103AD0004FF4FA752846BDE8F88300BF00E07F4048
:103AE00000007E4030B583B0EFF30384164A1749D7
:103AF000137CD2F88000103C64B21A0751F82450AD
:103B00000AD4DAB213061BD4D3061BD510F4405FD7
:103B100014BF0721062100E0042128460191C0348A
:103B2000FFF794FE0A4B019953F8242028466FF3BF
:103B3000104243F8242003B0BDE83040FFF73EBDFB
:103B40000521EAE70721E8E700E07F40B0A2FF1F78
:103B50000060004038B5EFF30383103B5BB2214AAD
:103B6000214C03F1C00154F8234052F821006FF3B7
:103B7000104042F8210094F83450012D24D0022D39
:103B800011D01A4B93F8D430012B0CBF032502251A
:103B9000FFF730FD002384F8343029462046BDE885
:103BA0003840FFF70BBD256B002DF1D00F4AA36AFB
:103BB0001363226B0E4940332025013AD0200D704B
:103BC0000870A362226338BD236B002BE0D0002174
:103BD0002046FFF7A9FE0028F5D02046BDE8384072
:103BE000FFF734BE00600040B0A2FF1F00E07F403E
:103BF00000007E4070B490F90450224E224C83B0F5
:103C0000019105F1C001009256F821206FF318626E
:103C100046F8212056F82110C1F3080141F4004173
:103C2000E28992B28A42FBD008222270019A32B312
:103C3000164A019C52F825104C60009919B152F8AF
:103C40002510009C8C6052F82510CA7802F0C00242
:103C5000802A12D002B9CB810B4B0A4918221A7064
:103C600090F90430C033002051F8232042F08072D4
:103C700041F8232003B070BC70478B81ECE7034A06
:103C8000DBE700BF00600040005400400000FE1F62
:103C9000062070470620704790F904300449C0336D
:103CA000002051F8232042F0807241F82320704711
:103CB0000060004090F90430044AC033002052F8FC
:103CC00023106FF3186142F8231070470060004022
:103CD00090F90420144B53F82220D378002013F0DD
:103CE000C003C1E900000CD0D08910B4C0B24FF4B9
:103CF0008074802BC1E902400BD000205DF8044B9A
:103D00007047D3894FF480329BB2C1E9022300206F
:103D1000704793895DF8044B4FF480329BB20020CA
:103D2000C1E90023704700BF0000FE1F30B490F9C6
:103D300004200849084D034602F1C00051F8204014
:103D40006FF3186441F82040002045F8220030BC91
:103D500018607047006000400000FE1F024B1B68A7
:103D600003600020704700BFAC51050010B40B4643
:103D7000DA7812F0C00F1C4604D0DA89D2B242EAD7
:103D80000222DA81A27812F0C00F03F11003EFD102
:103D9000064B074C08221A7090F90000182244F8CC
:103DA00020105DF8044B1A70704700BF00540040AB
:103DB0000000FE1F38B590F90430114A114CC03391
:103DC000054652F823006FF3186042F8230052F8BA
:103DD0002320C2F3080242F40042E3899BB29342DB
:103DE000FBD0281DFFF7C2FF95F904300449C0330A
:103DF000002051F8232042F0807241F8232038BD82
:103E000000600040005400401C4AF8B51378064694
:103E10000C46A3B1636893F90030002B2CDB184AE1
:103E200052F823500DB10820F8BD304600F8043F89
:103E30002168FFF79BFF134B33602846F8BD01252F
:103E40001570EFF3108085F310880F4AD16921F4C3
:103E50008001D161D26980F31088094F1946384634
:103E60004FF4C07214F0E2F8084B5F601D73636892
:103E700093F90030002BD2DA0B20F8BD349FFF1FDE
:103E80000000FE1F0043544400E001400054004085
:103E900070B4EFF31085012484F310881F4B9A68E7
:103EA00022F480129A609B6885F31088EFF31085E6
:103EB00084F310880A785ABB194C237962F386136D
:103EC000237185F310884C68154AA378DB01DBB2B7
:103ED000537193799BB94B788BB1EFF31086012323
:103EE00083F310880D4B9D6825F400459D609B6809
:103EF00086F310880B4D022680232E709371637811
:103F000003720A780270084B436070BC002070474F
:103F1000034A13796FF3C7131371D2E7007004409B
:103F200000E00540C0F00540004341440278024BE8
:103F3000002023F81210704700E00540EFF31081D5
:103F4000012383F31088027842B90948037962F3A8
:103F50008613037181F3108800207047044A137997
:103F60006FF3C713137181F310880020704700BFEF
:103F700000E0054010B4EFF31084012383F31088B0
:103F8000037883B90D4A117963F386111171117A9F
:103F900063F38611117284F31088002343605DF887
:103FA000044B18467047054B1A796FF3C7121A7104
:103FB0001A7A6FF3C7121A72EDE700BF00E00540EE
:103FC000037A70B50446002B3CD003785B0003F104
:103FD000804303F5BC2300211D881980ADB2EFF3A7
:103FE0001086012383F310882C4B00781A7900285F
:103FF0003DD061F3C7121A711A7F42F080021A771E
:104000001A7A42F080021A721A7942F080021A710A
:1040100086F310880121042000F0E0F8EFF310810E
:10402000012383F3108822788ABB1C48037F62F344
:104030008613037781F31088184B2278002023F829
:10404000125070BDEFF31083012282F310880278C2
:1040500012493AB10A7942F080020A7183F310885A
:10406000002070BD0A7942F040020A71F6E760F361
:1040700086121A711A7F42F040021A771A7A42F0B9
:1040800040021A721A7942F040021A71C0E7034ADC
:10409000137F6FF3C7131377CCE700BF00E0054031
:1040A000064B074993F826001A6A51F82030054953
:1040B000C2F30262D3400B60704700BF00E00140D2
:1040C0002C02FE1F849FFF1F3748384B384A39495E
:1040D00070B4394C42604AF203550022A3F8FE53F3
:1040E000A4F800210160354993F82650344CC16092
:1040F0004FF400414461816001611C6A50F8251051
:10410000304DC4F30264E1400924296083F813248C
:1041100083F8A24093F8801419B183F8812483F8BE
:104120008024224B002106244FF4985283F8A540A6
:1041300083F8321019461A8591F83C301A07FBD5DE
:1041400000231A4A81F82A3092F83C309B06FBD5AE
:10415000194B1D49022483F81C41052482F826408E
:10416000116292F82610146A50F82110C4F302600C
:10417000C140402601204FF42544296082F83000D8
:10418000194682F8520082F82460A2F8FE43A3F890
:104190000401B1F804319BB2002BFAD1012370BCA9
:1041A000A1F80031704700BF2C02FE1F00E0014063
:1041B00000127A00002D310100C0014000366E016E
:1041C000001C4E0E849FFF1F21120121704700BF6B
:1041D000A0F101000028FBD1704700BF144B70B460
:1041E00001FB00F14FF47A761B681248B0FBF3F044
:1041F000A1FB064500234FF0FF32AB4208BFA242AD
:1042000006D3B4FBF0F0800880B170BCFFF7E0BFCC
:104210008000B1FBF0F0A0FB06018B4208BF824298
:10422000F2D270BC4FF0FF30FFF7D2BF70BC7047C6
:10423000849FFF1F00CA9A3B0B4B70B5B3F84051E7
:104240000A4E0024ADB225FA04F3DB07E0B203D531
:1042500056F8243003B198470134102CF3D1024BA7
:10426000A3F8305170BD00BF00600040389FFF1FB1
:1042700010B4074A074C002303F1C001013332F8A0
:10428000020F44F82100602BF6D15DF8044B704713
:104290009A50050000600040EFF31081012383F382
:1042A0001088124B33F8102092B22AB133F8102044
:1042B000013A92B223F8102033F810309BB293B930
:1042C0000B4A10B4B2F8FE330A4C9BB234F810001B
:1042D00043F4254323EA0003A2F8FE3381F3108858
:1042E0005DF8044B704781F310887047789FFF1F7B
:1042F00000E00140D851050030B4EFF310810123F4
:1043000083F310880D4A32F810309BB263B90C4C1D
:104310000C4DB4F8FE3335F810509BB22B4343F4E8
:1043200025439BB2A4F8FE3332F8103001339BB220
:1043300022F8103081F3108830BC7047789FFF1F3F
:1043400000E00140D85105000C490A6808B54AB19F
:10435000033020F003030A481344834205D80B605E
:10436000104608BD074A0A60F2E713F0EDFD0C2382
:104370004FF0FF320360104608BD00BF809FFF1F53
:1043800040B4FF1F40A4FF1F00BE704708B500F0F7
:1043900003F8FDF7DBFCFEE7224B234A4FF47001E4
:1043A00070B50020C3F888109A60FCF777FFFFF71C
:1043B0008BFE0120FCF772FF1C4B1D4D1D491E4852
:1043C0001E4A00244FF425469C801E809D601C4D93
:1043D000DD604FF48055A1F8205101219980121A17
:1043E000214613F023FE1748174A1849184D121A90
:1043F00013F0F4FD174B5B1BA34206DD9E1055F82E
:10440000043B01349847A642F9DCFFF749FE02203D
:10441000FCF744FFFFF72CFFBDE870400020FFF7DA
:10442000D5BE00BF00ED00E000000000000D004020
:1044300040B4FF1F006000404802FE1F40A4FF1F61
:1044400040CCFF1F8001FE1F2C02FE1F4CAB05005D
:104450002402FE1F2802FE1F002800F08F802DE995
:10446000F04F0278464D90F802804178454FC3786E
:1044700002F0F00605EB060E434D89B001F0F00C9A
:1044800008F0F00405EB0C0A3D1908F00F0901943F
:104490002C463B4D14F8094002F00F0201F00F01C9
:1044A00005EB0C081AF801A01EF802E0254618F8E2
:1044B000014004948AEA0E0E344C8EEA050E019DEA
:1044C000CDF808E004EB060803F0F00BAE462E4DE5
:1044D00018F8028004EB0B0A049CAE4484EA080836
:1044E0002A4C1EF809E0CDF814E003F00F0304EBAA
:1044F0000C0E254D1AF803A0CDF80CA0BC441EF8F4
:1045000001A01CF8011007EB060C2E441CF802C099
:10451000B25C04921A4E019A14441644184A16F8D2
:10452000096014F8094002EB0B0E5F44029AFF5C2D
:104530005D448AEA0C0AED5C1EF803309646039A45
:104540008EEA0209059A88EA0208049A4FF0000EE2
:1045500069F3070E88EA070751408AEA060667F3FF
:104560000F2E75404C4065F3174E5C4064F31F6E90
:10457000C0F800E0002009B0BDE8F08F02207047CD
:104580002059050020580500205705002056050039
:1045900010B50C4C206801F091FE68B9206850B14C
:1045A0000122094901F096FE084A07480121BDE8A9
:1045B0001040FCF75FBD10BD0121206801F040FFF5
:1045C000ECE700BF909FFF1F8C9FFF1F91450000ED
:1045D0002DE9F04F17299DB040F29185794B026883
:1045E0001B689A42844640F08C85041D8E4694E8F0
:1045F0000F00754F13AD85E80F000FCF17AE0FC634
:104600003B6833701499189E199A139F03461598A6
:104610000CEB0E097140504014911A9A169919F832
:10462000048C19F801AC7B405140CDE9150183EAB7
:10463000080219F8021C13938AEA136A19F8037C1A
:10464000C3F30740D2B2414042EA0A62C3F30723F0
:1046500042EA01427B40AEF1180142EA0323109383
:10466000CB1A0F2B089100F2458501211C206646CC
:10467000CDF844C013F060FC06F114090D90064615
:10468000002800F01185514814F080F8334636892F
:1046900003F1090803F1190714F09CF808F8010F59
:1046A0004745F9D10D9A26F0050646F00A06002383
:1046B0001681136001211820164613F03DFC0746B1
:1046C0007060002800F092801023184601213B60A2
:1046D00013F032FC8046786000287DD095E80F000A
:1046E000042688E80F00B0250B232846BD60012171
:1046F000C7E9043613F020FC0546F860002800F0F6
:10470000E08498E80F00DFF8C8B0DFF8C8A085E8BB
:104710000F00324628461CE09DF849509DF84A108B
:104720009DF84B3090F8008090F801E090F802C0BE
:10473000C778013286EA080685EA0E0581EA0C018F
:104740007B402C2A067445748174C37400F1040004
:104750004CD0C66812969307F6B2DDD1BDF8491069
:104760009DF84B308DF85F60ADF85C108DF85E30D1
:10477000179FFBB203F0F00CDC4403F00F03C7F308
:1047800007411CF8033001F0F00CDC4401F00F018C
:10479000C7F307250AEB92063F0E05F0F00E1CF852
:1047A000011016F8016C07F0F00CDE4405F00F055F
:1047B000DC4407F00F075E401EF805501CF8073078
:1047C000B0E700BFE05105002C5B050080F2FB3331
:1047D00020550500205A0500F86808B113F0E8FBE1
:1047E000384613F0E5FB0D9A00235360089B0F2B0E
:1047F00040F34F840394CA4654460FCC4AF8140C35
:104800000D984AF8101CAAF11404D0F804B0A26064
:1048100009944AF8083CCDF838B0BBF1000F00F01D
:104820002284DBE9031202F18052013A12011AF8E4
:10483000146C8A5C1AF813EC1AF8124C1AF8110C62
:104840001AF8105C1AF80F3C56400AF8146CDBE9B1
:10485000032101F18051013902EB0111AAF1080293
:1048600091F801800B9288EA0E080AF8138CDBE9B4
:10487000032101F18051013902EB0111AAF10C076A
:104880008A780C9762400AF8122C0592DBE9032122
:1048900001F18051013902EB0111CA7842400AF856
:1048A000112C0092DBE9032101F18051013902EB67
:1048B00001110A7955400AF8105CDBE9032101F186
:1048C0008051013902EB011252791AF80E9C1AF844
:1048D0000D0C1AF80C6C1AF80B7C1AF80A4C1AF822
:1048E000085C53400AF80F3C0493DBE9033202F101
:1048F0008052013A03EB02139A791AF8093C82EAD2
:1049000009090AF80E9CDBE9032101F18051013904
:1049100002EB0111CA7950400AF80D0CDBE90321C2
:1049200001F18051013902EB01110A7A56400AF86F
:104930000C6CDBE9032101F18051013902EB01111B
:104940004A7A7A400AF80B2C0292DBE9032101F142
:104950008051013902EB01118A7A54400AF80A4C5D
:10496000DBE9032101F18051013902EB0111CA7A1F
:1049700053400AF8093CDBE9032101F18051013978
:1049800002EB01110A7B1AF8051C55400AF8085C75
:10499000DBE9036707F18057013F06EB07171AF8B9
:1049A000075C7E7B1AF8062C75400AF8075CDBE989
:1049B000036707F18057013F06EB0717BE7B724084
:1049C0000AF8062CDBE9036707F18057013F06EB85
:1049D0000717FE7B71400AF8051CDBF81060019197
:1049E000B11E079100F0798106F18056023E370131
:1049F00006931AF8141CD14E0AF80F8C01F0F00E31
:104A000005F0F00C3346B644B44404F0F0061E44FE
:104A100004F00F0401F00F0105F00F051EF801105E
:104A200016F804E01CF805500A9100F0F0041C444C
:104A30001E46069B0AF80D3C049B0AF80B3C059B9E
:104A40000AF80A3C019B0AF8093C029B0AF8073C59
:104A500000F00F00009B0AF8053C039B14F800C00F
:104A60000AF80E2C0AF8069C0AF8141C0AF8135CC3
:104A70000AF812EC0AF811CC4BB11AF8100C00F03D
:104A8000F004344400F00F00205C0AF8100C069982
:104A9000AA4B08F0F00602F0F00401F0F0001C440C
:104AA0001E4418441946069B08F00F0802F00F0236
:104AB00003F00F03A25C16F80880C45C0692BAF1FA
:104AC0000C0F0F940AF80F8C0AF80E2C0AF80D4CF4
:104AD00009D01AF80C3C03F0F0020A4403F00F036B
:104AE000D35C0AF80C3C04990598944A01F00F0431
:104AF00001F0F003019900F0F0061344164401F0B0
:104B0000F0028E491B5D0AF80B3C0A44019901939F
:104B100000F00F0001F00F01305C545C0490BAF11A
:104B2000080F05940AF80A0C0AF8094C0AD01AF87A
:104B3000082C824902F0F003C81802F00F03C35C8E
:104B40000AF8083C029B00997C4E03F0F00009F043
:104B5000F00203F00F0401F0F0033044324409F096
:104B60000F09334401F00F06045D12F809209B5D24
:104B70000AF8074C0AF8062C0AF8053CDBF80C008A
:104B80000A99C05D1AF8106C41400AF8141CDBF851
:104B90000C100998394449784D400AF8135CDBF849
:104BA0000C10069D394489788EEA010E0AF812EC41
:104BB000DBF80C103944C9788CEA010C0AF811CCE6
:104BC000DBF80C10394409794E400AF8106CDBF818
:104BD0000C103944497988EA01080AF80F8CDBF88F
:104BE0000C10394489794D400AF80E5CDBF80C1042
:104BF0000F9D1AF80C6C3944C9794D400AF80D5CC8
:104C0000DBF80C101AF8085C3944097A71400AF88C
:104C10000C1CDBF80C10019E3944497A4E400AF80E
:104C20000B6CDBF80C10049E3944897A4E400AF86C
:104C30000A6CDBF80C10059E3944C97A4E400AF81C
:104C4000096CDBF80C103944097B4D400AF8085C0C
:104C5000DBF80C103944497B4C400AF8074CDBF870
:104C60000C103944897B4A400AF8062CDBF80C20EA
:104C70003A44103FD27B53400AF8053CFFF7ECFB67
:104C80000398FFF7E9FB0C98FFF7E6FB0B98FFF79B
:104C9000E3FB1AF8093C06931AF80F3C04931AF840
:104CA000123C05931AF8053C01931AF80B3C029349
:104CB0001AF8113C0093079B1AF8075C1AF80A4C83
:104CC0001AF80D0C1AF8138C1AF8062C1AF80E9C08
:104CD000013B07937FF48DAE069B1AF8146C174FB7
:104CE0000AF80F8C06F0F00E05F0F00C3946BE44C1
:104CF000BC4404F0F0070F4404F00F0405F00F0566
:104D00003C5D1CF805100D4D0A94274600F0F00498
:104D10002C4400F00F0006F00F06205C069004986B
:104D200009910AF80B0C0AF8131C059806990AF861
:104D30000A0C0AF8111C0298039901E02C5A05008C
:104D40001EF80660019C0AF8070C009807960AF8FE
:104D50000E2C0AF80D3C0AF8094C0AF8069C0AF8D1
:104D6000050C0AF8146C0AF8127C49B11AF8100CF8
:104D700000F0F0042C4400F00F00205C0AF8100C46
:104D8000C74908F0F00502F0F00403F0F00008F065
:104D90000F0E0D440C4402F00F02084403F00F0301
:104DA00015F80E6010F8038014F802E00AF80F6C92
:104DB000BAF10C0F0AF80EEC0AF80D8C09D01AF8AB
:104DC0000C3C03F0F0020A4403F00F03D35C0AF832
:104DD0000C3C059A049BB24902F0F00002F00F046B
:104DE000019A03F0F00502F0F0020D4408440A4471
:104DF0000F460199045D0AF80A4C03F00F0301F015
:104E00000F01ED5C12F801C00AF80B5CBAF1080F53
:104E10000AF809CC09D01AF8083C03F0F0023A4429
:104E200003F00F03D35C0AF8083C02989C4B00F097
:104E3000F00109F0F00200F00F07194418461A4477
:104E4000009BC95D0AF8071C03F0F00303440098B7
:104E5000079F09F00F0900F00F0012F809201B5CF2
:104E60000AF8062C0AF8053CDBF80C001AF8109C2E
:104E7000007847400AF8147CDBF80C00099F407862
:104E800047400AF8137CDBF80C000A9F8078474003
:104E90000AF8127CDBF80C00069FC07878400AF80C
:104EA000110CDBF80C00007980EA09070AF8107C85
:104EB000DBF80C00407946400AF80F6CDBF80C0078
:104EC0001AF80C7C80791AF8086C8EEA000E0AF841
:104ED0000EECDBF80C00C07988EA00080AF80D8CAB
:104EE000DBF80C00007A78400AF80C0CDBF80C00B8
:104EF000407A45400AF80B5CDBF80C00807A4440AD
:104F00000AF80A4CDBF80C00C07A8CEA000C0AF8AC
:104F100009CCDBF80C00007B46400AF8086CDBF893
:104F20000C00407B41400AF8071CDBF80C10897B21
:104F30004A400AF8062CDBF80C200899D27B10397D
:104F400008915340039A0AF8053C10320F29039246
:104F50000AF1100A3FF750AC00260E9C606818B1A9
:104F600013F026F8002363600E9BD86808B113F095
:104F70001FF80E9813F01CF80D9813F019F8002E76
:104F80007BD1109B002BB8BFA3F57A7677DB00F0BE
:104F9000C1801946119A565492F900305B2B02EBEE
:104FA000010740F0A98001F1FF3892469044144671
:104FB00049E0451E67D095F900305D2B40F08B80AD
:104FC000A5EB0409B9F1FF0F00F388800AF8019BF3
:104FD0004A462146504613F001F800230AF80930EA
:104FE00095F902300A2BCA4414BF05F1020905F1F4
:104FF00003090A21484613F06DFC80B310F9013C07
:105000000D2B2ED0441E2AD0A4EB09050135FF2D0F
:1050100067DC0AF102038AF801502A46494618461D
:1050200012F0EAFF0022425594F902200A2A14BF26
:10503000023403340544A74205F1010A54D994F916
:1050400000305B2B53D101340A21204613F042FC7F
:10505000C8B110F9013C0D2BABD1851EABE744461E
:10506000D2E7841ED0E75C460E9462262346002BCE
:105070007FF473AF0D9812F09BFF0A4B9E1B3046D6
:105080001DB0BDE8F08F6FF0020630461DB0BDE8E0
:10509000F08F002B41D10D9B5B680E936326E6E7F2
:1050A0002C5A050018FCFFFF089B0F2B2BDD99E8FD
:1050B0000F00119C1A4E84E80F0030461DB0BDE869
:1050C000F08F404612F074FF384612F071FF0D9BCE
:1050D0005D60FFF78BBB6FF00306D0E76FF004064F
:1050E000CDE76FF00506CAE700236B70C7E76FF0E6
:1050F0000606C4E70B4EC2E76FF00106BFE70A4E93
:10510000BDE70A4EBBE71A46094E054B002A18BFF9
:105110001E46B4E74FF0FF36B1E70D9B5C68A3E78E
:10512000B6FBFFFFB3FBFFFFB2FBFFFFB4FBFFFFCC
:10513000B5FBFFFF534B544A196891421BD0514BAA
:10514000514A1968914258D04E4B4F4A19689142C2
:105150005DD04E4B4C4A1968914262D04B4B4A4A43
:105160001968914267D04A4B474A196891426CD0FE
:105170004FF0FF307047998844F636529142DED1A5
:105180009B79312BDBD1002170B5424B424A53F859
:105190002110D4B00446C8680B680290886801905A
:1051A0004968009104A8402113F060FB214614A82F
:1051B0004FF4807212F012FF1499FC295FDC15A8DD
:1051C000FFF706FA002856D19DF954308BB1334EC3
:1051D00015AD6C1C2146304613F089FB2B78591C09
:1051E000621800283BD0635C0233D518D356002BDD
:1051F000EFD16FF0030054B070BD998844F6365279
:105200009142A1D19B79322B9ED10121BCE7998893
:1052100044F6365291429CD19B79332B99D102218D
:10522000B2E7998844F63652914297D19B79342B54
:1052300094D10321A8E7998844F63452914292D13F
:105240009B79322B8FD104219EE7998845F23472E5
:1052500091428DD19B79312B8AD1052194E7981CFD
:105260002018C6D004A913F042FB002818BF6FF025
:10527000030054B070BD6FF0020054B070BD6FF009
:105280000100B8E72470000152374641F080000168
:10529000243C0001405B05001C520500145205002F
:1052A000FFF748BF2DE9F04FBB4ABC4B1468ADF681
:1052B000BC0D4FF44472059007910DF5B0604FF4AA
:1052C0004E7100F08FFF002840F0C28204F11409F3
:1052D000D9E901016369D9F80C2003440B44134454
:1052E0000693FBF789FFAE4AAE480121FBF7C2FEE9
:1052F000002840F08F82AC4B1B7809930BAC0DF566
:10530000B87B9CAECA460698DAF80010DFF8D09257
:10531000DAE901230190DAF80C000090A348FBF7CA
:105320006FFF01254FF47A710120FEF757FF9B4B69
:105330001F68002338460A93236001F047F8011ED6
:105340002DDDCDE9004B38460CAB0AAA01F044F83C
:105350000A9888B10C9900290EDD01440139431ED9
:1053600093F9012003F102080A2AA8EB000803F1CF
:10537000010322D09942F3D1216881B1DBF800000A
:1053800000280CDD08444B1E0138C1F1010101EB7E
:10539000030813F9012F0A2A0AD08342F7D10135F5
:1053A00041F28A339D42BDD18148FBF729FFAAE72C
:1053B0000C9B984418F10108F1D0784B42463146D5
:1053C000186800F0C3FF00272946484606F8087011
:1053D000FBF716FF7749304613F09BFA002800F0E0
:1053E000D0804FF4807239461CA812F01FFE96F947
:1053F0000D30002B00F012820DF173080DF27D29A3
:105400000CE0FC2F00F0B78108F8010F93F90020A1
:1054100099467B1C002A00F0A1801F4610222146DD
:10542000484613F08DFB23684B45EAD13B1D04939E
:1054300000235D4960481C978BF80030FEF74EF85A
:10544000002840F08F80079B04995B4803EB01091B
:1054500009F1FF39059999FBF3F31A460893FEF712
:10546000DBFA002840F0BE80099BC3B1534F814650
:1054700040F6B93806E009F10109FEF7AFFEC14573
:1054800000F082813B784FF47A710120002BF2D03A
:1054900040F6B832914500F0778100233B70DDE99A
:1054A00007320599444802FB03F25B46FEF77EF99A
:1054B000002840F064819BF800302BB1012B00F0F4
:1054C000B581022B00F08581DDE904321CA93A4840
:1054D000FEF76AFA002840F07781099B002B40F024
:1054E0005781049A05981CA912F06AFD002840F023
:1054F00099813148FDF73AFF002840F0AB81304BED
:10550000304A1B6893427AD02D4B2E4A1B68934237
:1055100000F0DF802A4B2B4A1B68934200F0EA80A0
:10552000294B284A1B68934200F0F580264B254AF8
:105530001B68934200F00081244B224A1B6893426F
:1055400000F00B812248FBF75BFE41F287339D425E
:105550007FF7D9AE1648FBF753FED4E67A1D0492C6
:105560001F4665E71B48FBF74BFE1B48FBF748FE51
:1055700041F287339D427FF7C6AE0D48FBF740FEF0
:10558000C1E631461548FBF73BFE013541F28A334F
:105590009D427FF4C7AE07E79CB17F40909FFF1FFD
:1055A000914500008C9FFF1FD04D05003C52050027
:1055B000805405007C52050068A2FF1F899FFF1FD1
:1055C0002470000152374641F0800001243C000164
:1055D00068540500AC5205003C5405008C5205008F
:1055E0005C52050001469D48FBF70AFE9C48FDF70A
:1055F000BDFE0028B9D09B48FBF702FEB5E79A4BE9
:105600001A8844F636539A427FF47EAF974B1B7844
:10561000312B7FF479AF964AD16813680291916873
:105620000191526800924021924A0CA813F01EF991
:1056300005994FF48072584612F0D0FCDBF8001048
:10564000FC293FF77FAF5DA8FEF7C2FF00287FF47B
:1056500079AF9BF90430002B3FF474AF864F0DF502
:10566000BA7808E019F80330023302EB0308D35686
:10567000002B3FF467AF08F101094946384613F0A3
:1056800036F998F800104B1C09EB03020028E9D109
:10569000881C19EB00003FF455AF0CA913F027F953
:1056A00000287FF44FAF07467448FBF7A9FD41F28D
:1056B00087339D4200F38480714CFBF79DFD206889
:1056C00000F0E2FD0023236038460DF6BC0DBDE876
:1056D000F08F654B1A8844F636539A427FF41AAF1E
:1056E000624B1B78322B96D0664B674A1B689342FD
:1056F0007FF416AF5C4B1A8844F636539A427FF417
:105700000FAF5A4B1B78332B85D0604B5E4A1B681A
:1057100093427FF40BAF5E4B1A8844F636539A429D
:105720007FF404AF03F1807303F54F531B78342BE0
:105730007FF4FCAE574A6FE7554B1A8844F6345352
:105740009A427FF4F9AE544B1B78322BF2D0534B74
:105750004D4A1B6893427FF4F5AE514B1A8845F2CF
:1057600034739A427FF4EEAE4E4B1B78312B7FF4AC
:10577000E9AE4D4A50E74FF48073049358E6014672
:105780004A48FBF73DFD31E74948FBF739FD2DE776
:10579000484F814640F6B93805E009F10109FEF7A6
:1057A0001DFDC1454CD03B784FF47A710120002B90
:1057B000F3D040F6B833994542D000233B7090E6D1
:1057C0003D48FBF71DFD77E701463C48FBF718FD18
:1057D0000CE73B4FDFF8EC8081460AE098F8003098
:1057E0006BB9FEF7FBFC09F1010940F6B9339945A5
:1057F0002AD03B784FF47A710120002BEED040F68E
:10580000B833994520D03B7803F0FF0293B92D4B74
:105810001A7059E62C48FBF7F3FC6CE51F4604238D
:10582000049305E62948FBF7EBFCDFE62848FBF785
:10583000E7FCDBE62748FBF7E3FC00233B70D5E6FB
:105840002548FBF7DDFCD1E62448FBF7D9FCCDE683
:10585000234F39E70348FBF7D3FC50E6C852050055
:1058600068A2FF1F00550500287000012A70000182
:10587000147000011C520500145205005454050018
:10588000909FFF1F2470000152374641F0800001B5
:10589000F480000190810001F6800001243C0001A9
:1058A000283C00012A3C0001143C00011053050073
:1058B000E85205008B9FFF1F80540500C853050068
:1058C0008A9FFF1F889FFF1F285205001054050064
:1058D0003853050098530500E85305006C53050044
:1058E00068F7FFFF0378032B0AD0022B04D05BB9C3
:1058F000084B01221A707047074B01221A7070473B
:10590000064B01221A707047012B04BF044A137022
:10591000704700BF899FFF1F889FFF1F8A9FFF1F3F
:105920008B9FFF1F2820704700B327291ED970B511
:10593000002104461546282200F0CCFD4FF4005308
:105940004FF480720D4E63604FF4C000236040F24C
:105950001911A2600023B322A6616061C4E9031299
:10596000C4E9083345B12B60204670BD12B14FF039
:10597000FF33136000207047204670BD008813007D
:10598000002800F09A80002900F09780002A40F358
:105990009480002B00F091802DE9F0415200D0E975
:1059A0000847023B01EB020EAEF1020E02391E4621
:1059B0009C4640F2E63831F9025FAD022C1B08FB31
:1059C0000744A7128E452CF8027F2C46F3D1002500
:1059D000C0E9084799180768394C94FBF7F4AC46BE
:1059E00004E09542A8BF1546994206D033F9022F2C
:1059F0006245F6DD99429446F8D115F5004F4ED038
:105A00006D422DB26545B8BF6546AC42C56143687D
:105A100017DB426905FB07FC944512DCDFF8A4E0C4
:105A20009EFBF7F2AA4238DC8569AC4535DB9F4224
:105A300038DD9EFBF3F2224C036094FBF3F41F4627
:105A40000EE0026902FB07F73F129F42076020DD6C
:105A500003601F461A4C1B4A94FBF7F492FBF7F2C3
:105A6000194808E0934203FB07F310DB43F30F23CD
:105A70008E42338008D036F9023FA342F2DD47F66A
:105A8000FF738E423380F6D10020BDE8F0810346DB
:105A9000EEE783689F42DDDADAE7C268D2E747F6CD
:105AA000FF75B2E783689F42DADA9EFBF3F2044C9B
:105AB00003601F4694FBF3F4D2E74FF0FF307047CA
:105AC00000FF7F00000180FF0180FFFFB0FA80F03F
:105AD00040094042704700BFB8B3F7EE007AB4EE19
:105AE000E70AF1EE10FA30D4DFED197AB4EEE70AE6
:105AF000F1EE10FA29DC8368002BB8BFFF331B12CC
:105B000007EE903AF8EEE77AF4EEC07AF1EE10FA8A
:105B10001BDC9FED107AB4EEC70AF1EE10FA14DA2E
:105B2000B7EE007AF4EEC77AF1EE10FA0DD4B0EECB
:105B3000407ABEEECC7AFEEECC7A17EE103AC0ED8B
:105B4000027AC0E90033002070474FF0FF30704701
:105B5000000000420000804300283FD000293DD0D3
:105B6000002A3BDDF0B50D6891B09DB31E46154689
:105B70000EAB0FAA0C460DF1340C0CA90592049340
:105B800008AA07ABCDE90032CDE9021C0BAB0AAA8B
:105B900009A9074600F0A2FDF0B940F6C41C33463F
:105BA0002A4621463846CDF800C000F027FE0028DE
:105BB00010DD00F17C04FFF7B5FE434203F0030360
:105BC0001844434203F0030300F5A0701844204436
:105BD00011B0F0BD0248FBE70248F9E70048704702
:105BE0002EF8FFFF2BF8FFFF2DE9F04FADB08046F8
:105BF00000243898369D0793894692461394FFF700
:105C00004FFB1390A8B1FBF7A9FA58B95D4B13935A
:105C10003A9B002B74D01A46139B136000202DB0C2
:105C2000BDE8F08FDDE93801FFF73CFB1390002859
:105C3000EED1554F554E09970896072256F8041B8A
:105C400057F8040B002400F08BFC70B10134062CD3
:105C500051D0306812F055FE56F8041B024657F832
:105C6000040B00F07DFC0028F0D1DFF834B15BF8C4
:105C7000243001333FD0454E434F56F8041B0446B1
:105C8000072257F8040B00F06BFC70B10134062CAE
:105C90000DD0306812F035FE56F8041B024657F856
:105CA000040B00F05DFC0028F0D1002C2FD0B8F1DF
:105CB000000F29D0B9F1000F26D0BAF1000F23DD73
:105CC000D9F8003003B312AB11AC10A80FA90BAA7E
:105CD00005930AABCDE90304CDE9012100930DAA98
:105CE0000EAB0CA9404600F0F9FC0446002859D040
:105CF000274B13938CE7274B13933A9B002B8AD1A6
:105D000018462DB0BDE8F08F234B139380E71F4E4C
:105D10001D4F56F8041B57F8040B072200F020FC17
:105D200070B10134062C29D0306812F0EAFD56F823
:105D3000041B024657F8040B00F012FC0028F0D1B7
:105D40005BF82460154918A8502212F047F918AFE3
:105D500014AC10223946204600F0C4FB1021204626
:105D600000F08EFB10222146304600F0F9FB103780
:105D700000289CD02CABBB42EBD198E74FF0FF360C
:105D8000E0E700BF30F8FFFFB05B0500E05B050017
:105D90002BF8FFFF68F7FFFF2EF8FFFF585B0500A9
:105DA000C85B0500079B524649464046FFF7D4FEB4
:105DB0000028A9DD002D00F0C380379B984200F336
:105DC000BF807C222146284600F084FBAC67FFF7A9
:105DD000A9FD13AA0146064605F17C00FFF7A4FDC4
:105DE000E865002800F0AF80774207F00307379B93
:105DF0006C66374407F17C0607F5DE77DC1B40F65E
:105E0000C41C13AB2E442F44039352462E66079BAB
:105E1000CDF800C049464046CDE9017400F06EFD62
:105E2000A862002800F0B080389B1BB1399B002B82
